:100000000C942A000C9457000C9457000C94570041
:100010000C9457000C9457000C9457000C94570004
:100020000C9457000C9457000C9457000C945700F4
:100030000C9457000C9457000C9457000C945700E4
:100040000C9457000C9457000C9457000C945700D4
:100050000C94570011241FBECFE5D8E0DEBFCDBF02
:0C0060000E9436000C943400F894FFCF8E
:10006C0087B3806B87BB8DB183608DB96C9A6E9AA8
:10007C0081E40E94480083EF91E00197F1F700C002
:04008C000000F6CFAB
:10009000C49800C000C000008FB9779BFECFC49AFF
:0E00A00081EE94E00197F1F700C00000089592
:0400AE000C940000AE
:00000001FF
