:100000000C942D000C94F4020C94F4020C94F40261
:100010000C94F4020C94F4020C94F4020C94F40288
:100020000C94F4020C94F4020C94F4020C942D0140
:100030000C94F4020C94F4020C94F4020C94F40268
:100040000C94F4020C94F4020C94F4020C94F40258
:100050000C94F40200600064800011241FBECFE500
:10006000D8E0DEBFCDBFE4E5F0E040E017C0B591D9
:10007000A59135912591059107FD0CC0959185912C
:10008000EF01F92FE82F05900D92A217B307D9F7CA
:10009000FE0104C01D92A217B307E1F7E935F4078A
:0E00A00031F70E9491020C945500F894FFCFA6
:1000AE0010C00E94CD0258F00E94C60240F029F402
:1000BE005F3F29F00C94DB0251110C94D5020C9485
:1000CE00F1020E94DC0168F39923B1F3552391F3F9
:1000DE00951B550BBB27AA2762177307840738F0A9
:1000EE009F5F5F4F220F331F441FAA1FA9F335D006
:1000FE000E2E3AF0E0E832D091505040E695001CBA
:10010E00CAF72BD0FE2F29D0660F771F881FBB1F73
:10011E00261737074807AB07B0E809F0BB0B802D51
:10012E00BF01FF2793585F4F3AF09E3F510578F07D
:10013E000C94DB020C94D5025F3FE4F3983ED4F3AB
:10014E00869577956795B795F7959F5FC9F7880F51
:10015E00911D9695879597F90895E1E0660F771FA3
:10016E00881FBB1F621773078407BA0720F0621B34
:0E017E00730B840BBA0BEE1F88F7E095089503
:10018C0011C00E94C60238F00E94CD0220F039F452
:10019C009F3F19F426F40C94F1020EF4E095E7FB62
:1001AC000C94DB02E92F0E94DC0158F3BA176207AA
:1001BC0073078407950720F079F4A6F50C94D40204
:1001CC000EF4E0950B2EBA2FA02D0B01B901900166
:1001DC000C01CA01A0011124FF27591B99F0593FAA
:1001EC0050F4503E68F11A16F040A22F232F342FF2
:1001FC004427585FF3CF469537952795A795F04040
:10020C005395C9F77EF41F16BA0B620B730B840B54
:10021C00BAF09150A1F0FF0FBB1F661F771F881F0C
:10022C00C2F70EC0BA0F621F731F841F48F4879564
:10023C0077956795B795F7959E3F08F0B0CF939556
:0E024C00880F08F09927EE0F97958795089573
:10025A001F920F920FB60F9211242F933F934F9331
:10026A005F936F937F938F939F93AF93BF93EF9314
:10027A00FF93809160009091610001968D33910502
:10028A0029F0909361008093600014C0109261007D
:10029A00109260008DE00E94E902809162009091C4
:1002AA0063009C012F5F3F4F3093630020936200ED
:1002BA000E941B02FF91EF91BF91AF919F918F9185
:1002CA007F916F915F914F913F912F910F900FBE48
:0602DA000F901F90189523
:1002E000E89409C097FB3EF49095809570956195D0
:1002F0007F4F8F4F9F4F9923A9F0F92F96E9BB2786
:100300009395F695879577956795B795F111F8CF01
:10031000FAF4BB0F11F460FF1BC06F5F7F4F8F4F6C
:100320009F4F16C0882311F096E911C0772321F062
:100330009EE8872F762F05C0662371F096E8862FFA
:1003400070E060E02AF09A95660F771F881FDAF751
:0A035000880F9695879597F9089598
:10035A000E94E40188F09F5798F0B92F9927B75166
:10036A00B0F0E1F0660F771F881F991F1AF0BA954F
:10037A00C9F714C0B13091F00E94D402B1E00895D7
:10038A000C94D402672F782F8827B85F39F0B93FC9
:10039A00CCF3869577956795B395D9F73EF4909502
:0E03AA008095709561957F4F8F4F9F4F0895FE
:1003B80057FD9058440F551F59F05F3F71F047950E
:1003C800880F97FB991F61F09F3F79F087950895F3
:1003D800121613061406551FF2CF4695F1DF08C012
:1003E800161617061806991FF1CF8695710561052F
:0403F80008940895C8
:1003FC00BC018AB188618AB9072E000C880B990B55
:10040C000E9472019B01AC0160E074E284E799E404
:10041C000E94ED0220E030E040E85FE30E94B80269
:0A042C000E94BF0269B970BD089577
:10043600CF93DF93CDB7DEB72B970FB6F894DEBF19
:100446000FBECDBF4AE0BE016F5F7F4F0E949D0287
:10045600CE0101960E9482022B960FB6F894DEBF5B
:0A0466000FBECDBFDF91CF910895C6
:10047000BB27FB015527AA27880F991FAA1FA4177E
:1004800010F0A41B83955051B9F7A05DAA3308F072
:10049000A95DA193009779F7B111B1931192CB01A6
:0404A0000C94630253
:1004A400092E0394000C11F4882352F0BB0F40F47E
:1004B400BF2B11F460FF04C06F5F7F4F8F4F9F4FBE
:0204C400089599
:1004C600DC01FC01672F71917723E1F7329704C0B5
:1004D6007C916D9370836291AE17BF07C8F3089540
:1004E600CF93DF93C62FD42F0E94B1028D2F0E9487
:0E04F600E5028C2F0E94A802DF91CF9108959D
:10050400CF93DF93EC018881882331F021960E94F8
:0E051400E90289918111FBCFDF91CF9108950B
:1005220080E895E20E94FE0141E065E080E00E94E1
:0805320073020E94F602FFCFE4
:10053A00BB274A3031F4992322F4BDE29095819584
:06054A009F4F0C943902E2
:10055000CF93C82F0E94E10283B7C82BC3BFCF91AE
:020560000895FC
:0E05620093B7977B93BF93B7892B83BF089500
:0E0570005058BB27AA270E94C6000C945202C6
:0E057E000E94AD016894B1110C94D50208954D
:0E058C0000240A94161617061806090608958C
:0E059A0000240A94121613061406050608958E
:0E05A800E894BB2766277727CB0197F90895C3
:0C05B60097F99F6780E870E060E008950E
:0805C20083B7887F83BF089511
:0805CA0099B7892B89BF089540
:0805D2005D9BFECF8CB908957A
:0805DA000E9457000C9452022C
:0605E2009FEF80EC08957C
:0405E8000C9400006F
:0405EC007894089562
:00000001FF
