:100000000C9430000C9451040C9451040C94510441
:100010000C9451040C9451040C9451040C9451040C
:100020000C9451040C9451040C9451040C945A00F7
:100030000C9451040C940A020C9451040C94510435
:100040000C9451040C9451040C9451040C945104DC
:100050000C945104006000A10008C600A100A38018
:1000600011241FBECFE5D8E0DEBFCDBFE4E5F0E050
:1000700040E017C0B591A59135912591059107FDF7
:100080000CC095918591EF01F92FE82F05900D9205
:10009000A217B307D9F7FE0104C01D92A217B30738
:1000A000E1F7E036F40731F70E94E8020C945800BB
:0400B000F894FFCFF2
:1000B4001F920F920FB60F921124CF92DF92EF92FC
:1000C400FF922F933F934F935F936F937F938F93FD
:1000D4009F93AF93BF93EF93FF938091A10090916F
:1000E400A2000196813321E0920729F09093A200A7
:1000F4008093A10038C01092A2001092A1000E9427
:100104005D040E9448040E944B04BC01990F880BB3
:10011400990B0E945C0220E030E040EA5BE30E941D
:10012400440420E030E04AE754E40E9444040E947E
:100134000E046B017C0188EBC8168BE0D8063CF0FA
:100144000E9455048CE690E00E94B70306C00E940A
:10015400570480E690E00E94B703C6010E9424037E
:100164008DE00E943C04FF91EF91BF91AF919F916C
:100174008F917F916F915F914F913F912F91FF905C
:10018400EF90DF90CF900F900FBE0F901F901895B7
:1001940010C00E941C0458F00E94150440F029F479
:1001A4005F3F29F00C942A0451110C9424040C94FC
:1001B4004E040E94C60268F39923B1F3552391F3C8
:1001C400951B550BBB27AA2762177307840738F0C2
:1001D4009F5F5F4F220F331F441FAA1FA9F335D01F
:1001E4000E2E3AF0E0E832D091505040E695001CD3
:1001F400CAF72BD0FE2F29D0660F771F881FBB1F8D
:10020400261737074807AB07B0E809F0BB0B802D6A
:10021400BF01FF2793585F4F3AF09E3F510578F096
:100224000C942A040C9424045F3FE4F3983ED4F322
:10023400869577956795B795F7959F5FC9F7880F6A
:10024400911D9695879597F90895E1E0660F771FBC
:10025400881FBB1F621773078407BA0720F0621B4D
:0E026400730B840BBA0BEE1F88F7E09508951C
:100272000FC00E94150438F00E941C0420F0952340
:1002820011F00C942A040C944E0411240C942404AE
:100292000E94C60270F3959FC1F3950F50E0551F5F
:1002A200629FF001729FBB27F00DB11D639FAA27C9
:1002B200F00DB11DAA1F649F6627B00DA11D661F18
:1002C200829F2227B00DA11D621F739FB00DA11D39
:1002D200621F839FA00D611D221F749F3327A00DF3
:1002E200611D231F849F600D211D822F762F6A2F8F
:1002F20011249F5750409AF0F1F088234AF0EE0FF4
:10030200FF1FBB1F661F771F881F91505040A9F720
:100312009E3F510580F00C942A040C9424045F3F04
:10032200E4F3983ED4F3869577956795B795F7955C
:10033200E7959F5FC1F7FE2B880F911D96958795D4
:0403420097F908958A
:1003460011C00E94150438F00E941C0420F039F4F4
:100356009F3F19F426F40C944E040EF4E095E7FB47
:100366000C942A04E92F0E94C60258F3BA176207B2
:1003760073078407950720F079F4A6F50C942304F7
:100386000EF4E0950B2EBA2FA02D0B01B9019001AA
:100396000C01CA01A0011124FF27591B99F0593FEE
:1003A60050F4503E68F11A16F040A22F232F342F36
:1003B6004427585FF3CF469537952795A795F04084
:1003C6005395C9F77EF41F16BA0B620B730B840B99
:1003D600BAF09150A1F0FF0FBB1F661F771F881F51
:1003E600C2F70EC0BA0F621F731F841F48F48795A9
:1003F60077956795B795F7959E3F08F0B0CF93959B
:0E040600880F08F09927EE0F979587950895B7
:100414001F920F920FB60F9211242F933F934F9375
:100424005F936F937F938F939F93AF93BF93CF9378
:10043400EF93FF93CCB1C13449F480E090E00E9483
:10044400D20387E990E00E94B70316C0C23449F48E
:1004540080E090E00E94C60382E890E00E94B70327
:1004640015C0C33449F481E090E00E94D2038DE8C2
:1004740090E00E94B7030AC0C43441F481E090E0E4
:100484000E94C60387E790E00E94B703FF91EF91B3
:10049400CF91BF91AF919F918F917F916F915F9118
:1004A4004F913F912F910F900FBE0F901F90189571
:1004B400E89409C097FB3EF49095809570956195FA
:1004C4007F4F8F4F9F4F9923A9F0F92F96E9BB27B0
:1004D4009395F695879577956795B795F111F8CF2C
:1004E400FAF4BB0F11F460FF1BC06F5F7F4F8F4F97
:1004F4009F4F16C0882311F096E911C0772321F08D
:100504009EE8872F762F05C0662371F096E8862F24
:1005140070E060E02AF09A95660F771F881FDAF77B
:0A052400880F9695879597F90895C2
:10052E000E94CE0288F09F5798F0B92F9927B751A5
:10053E00B0F0E1F0660F771F881F991F1AF0BA9579
:10054E00C9F714C0B13091F00E942304B1E00895B0
:10055E000C942304672F782F8827B85F39F0B93FA2
:10056E00CCF3869577956795B395D9F73EF490952C
:0E057E008095709561957F4F8F4F9F4F089528
:10058C0057FD9058440F551F59F05F3F71F0479538
:10059C00880F97FB991F61F09F3F79F0879508951D
:1005AC00121613061406551FF2CF4695F1DF08C03C
:1005BC00161617061806991FF1CF86957105610559
:0405CC0008940895F2
:1005D0000E9453040E94300441E065E080E00E94E4
:1005E000A80321E047E061E082E00E94410380E847
:1005F00095E20E9407030E9459042FE78AE196E0E2
:0E060000215080409040E1F700C00000F6CF8E
:10060E00BC018AB188698AB9072E000C880B990B38
:10061E000E945C029B01AC0160E074E284E799E405
:10062E000E94400420E030E040E85FE30E940704AF
:0A063E000E940E0469B970BD089512
:10064800CF93DF93CDB7DEB72B970FB6F894DEBF05
:100658000FBECDBF4AE0BE016F5F7F4F0E94DD0332
:10066800CE0101960E94B7032B960FB6F894DEBF11
:0A0678000FBECDBFDF91CF910895B2
:100682001F93CF93DF93162FD42FC22F0E94F9030B
:10069200812F0E9476038D2F0E94F103CC2319F043
:1006A2000E94610402C00E945F040E945B04DF9109
:0606B200CF911F91089595
:1006B800BB27FB015527AA27880F991FAA1FA41734
:1006C80010F0A41B83955051B9F7A05DAA3308F028
:1006D800A95DA193009779F7B111B1931192CB015C
:0406E8000C949803D3
:1006EC00813041F018F0833041F0089587B18F7359
:1006FC0087B908953F983E9A089587B1806C87B961
:02070C0008954E
:10070E00092E0394000C11F4882352F0BB0F40F411
:10071E00BF2B11F460FF04C06F5F7F4F8F4F9F4F51
:02072E0008952C
:10073000DC01FC01672F71917723E1F7329704C048
:100740007C916D9370836291AE17BF07C8F30895D3
:10075000CF93DF93C62FD42F0E9400048D2F0E94C9
:0E07600038048C2F0E94E803DF91CF9108959A
:10076E00CF93DF93EC018881882331F021960E948C
:0E077E003C0489918111FBCFDF91CF9108954A
:10078C009BB321E030E002C0220F331F8A95E2F7C1
:08079C00209529232BBB0895D1
:1007A4009BB321E030E002C0220F331F8A95E2F7A9
:0607B400292B2BBB089568
:1007BA00BB274A3031F4992322F4BDE29095819502
:0607CA009F4F0C945D033B
:1007D000CF93C82F0E94340483B7C82BC3BFCF91D7
:0207E00008957A
:1007E20096B1987F96B996B18770982B96B908956D
:0E07F20097B1907E97B997B1892B87B908957A
:0E08000093B7977B93BF93B7892B83BF08955F
:0E080E005058BB27AA270E94A3010C94870311
:0E081C000E9497026894B1110C942404089570
:0E082A0000240A9416161706180609060895EB
:0E08380000240A9412161306140605060895ED
:0E084600E894BB2766277727CB0197F9089522
:0C08540097F99F6780E870E060E008956D
:080860008AB383608ABB08958E
:0808680083B7887F83BF089568
:0808700099B7892B89BF089597
:080878005D9BFECF8CB90895D1
:080880000E94CA000C948703DA
:080888000E9439010C94870362
:06089000349BFECF089529
:0608960084B195B1089544
:06089C009FEF80EC0895BF
:0408A2000C940000B2
:0408A600B89A08955F
:0408AA00C09A089553
:0408AE00C098089551
:0408B2007894089599
:0408B600379A0895D0
:0408BA00369A0895CD
:0408BE00339A0895CC
:0408C20033980895CA
:0C08C6004D4F544F52204F4646200D006D
:0B08D2004D4F544F52204F4E200D00A0
:0B08DD004C454431204F4646200D00E2
:0B08E8004C454430204F4646200D00D8
:0A08F3004C454431204F4E200D000B
:0A08FD004C454430204F4E200D0002
:00000001FF
