:100000000C942D000C94D4000C94D4000C94D400C7
:100010000C94D4000C94D4000C94D4000C94D40010
:100020000C94D4000C94D4000C94D4000C94D40000
:100030000C94D4000C94D4000C94D4000C94D400F0
:100040000C94D4000C94D4000C94D4000C94D400E0
:100050000C94D40000600062800011241FBECFE524
:10006000D8E0DEBFCDBFE4E5F0E040E017C0B591D9
:10007000A59135912591059107FD0CC0959185912C
:10008000EF01F92FE82F05900D92A217B307D9F7CA
:10009000FE0104C01D92A217B307E1F7E935F4078A
:0E00A00031F70E9457000C945500F894FFCFE2
:1000AE000E94CA000E94CF00C1E0D0E01FC02FEF17
:1000BE0080E792E0215080409040E1F700C00000C0
:1000CE0080E090E00E94B800892B81F4809160005E
:1000DE0090916100892B29F01092610010926000BE
:1000EE0016C0D0936100C09360000CC080E090E019
:1000FE000E94B800892BD9F6809160009091610022
:10010E00892B29F082E090E00E94A600EFCF82E0DA
:08011E0090E00E949300EACF7B
:100126008330910511F49398089545B321E030E0AA
:10013600B90102C0660F771F8A95E2F7CB01809559
:06014600842385BB08952F
:10014C008330910511F4939A089545B321E030E082
:10015C00B90102C0660F771F8A95E2F7CB01842B99
:04016C0085BB0895B2
:10017000009729F486B3282F217030E009C020B3FE
:1001800030E002C0359527958A95E2F72170332734
:04019000C901089504
:0A01940084B3846884BB8B9A08953D
:0A019E00B89881B38B7B81BB0895F4
:0401A8000C940000B3
:00000001FF
