:100000000C942A000C9404010C9404010C94040137
:100010000C9404010C9404010C9404010C9404014C
:100020000C9404010C9404010C9404010C9404013C
:100030000C9404010C9404010C9404010C9404012C
:100040000C9404010C9404010C9404010C9404011C
:100050000C94040111241FBECFE5D8E0DEBFCDBF54
:10006000E4E5F0E040E017C0B591A5913591259108
:10007000059107FD0CC095918591EF01F92FE82FAF
:1000800005900D92A217B307D9F7FE0104C01D9287
:10009000A217B307E1F7E435F40731F70E94AF0088
:0800A0000C945200F894FFCF0C
:1000A8008FEF81BB84B3846584BBAE982FEF80E764
:1000B80092E0215080409040E1F700C000000E948B
:1000C800000188E30E94FB008CE00E94FB0086E0B0
:1000D8000E94FB002FEF81EE94E021508040904079
:0800E800E1F700C000000895DB
:1000F000CF93DF93CDB7DEB72B970FB6F894DEBF63
:100100000FBECDBF4AE0BE016F5F7F4F0E94E2008D
:10011000CE0101960E94D3002B960FB6F894DEBF55
:0A0120000FBECDBFDF91CF9108950F
:10012A00BB27FB015527AA27880F991FAA1FA417C7
:10013A0010F0A41B83955051B9F7A05DAA3308F0BB
:10014A00A95DA193009779F7B111B1931192CB01EF
:04015A000C94C3003E
:10015E000E945400C0EED4E121960E940001CE010F
:10016E000E9478002FEF89E698E121508040904060
:08017E00E1F700C00000F0CF22
:10018600DC01FC01672F71917723E1F7329704C0F8
:100196007C916D9370836291AE17BF07C8F3089583
:1001A600CF93DF93EC018881882331F021960E945A
:0E01B600F60089918111FBCFDF91CF91089562
:1001C400BB274A3031F4992322F4BDE290958195FE
:0601D4009F4F0C94960001
:1001DA00AC9A8FE19EE40197F1F700C00000AC9859
:0201EA00089576
:0A01EC00AA9A82BB0E94ED0008955C
:0A01F600AA9882BB0E94ED00089554
:0802000081E00E94FB0008955B
:040208000C94000052
:00000001FF
