:100000000C942D000C9433030C9433030C943303A1
:100010000C9433030C9433030C9433030C94330388
:100020000C9433030C9433030C943A010C94330373
:100030000C9433030C9433030C9433030C94330368
:100040000C94FE000C9433030C9433030C94330390
:100050000C94330300600062800011241FBECFE5C2
:10006000D8E0DEBFCDBFE4E5F0E040E017C0B591D9
:10007000A59135912591059107FD0CC0959185912C
:10008000EF01F92FE82F05900D92A217B307D9F7CA
:10009000FE0104C01D92A217B307E1F7E935F4078A
:0E00A00031F70E9465020C945500F894FFCFD2
:1000AE000FC00E94090338F00E94100320F0952320
:1000BE0011F00C9417030C94300311240C940303C9
:1000CE000E94C10170F3959FC1F3950F50E0551F2B
:1000DE00629FF001729FBB27F00DB11D639FAA278F
:1000EE00F00DB11DAA1F649F6627B00DA11D661FDE
:1000FE00829F2227B00DA11D621F739FB00DA11DFF
:10010E00621F839FA00D611D221F749F3327A00DB8
:10011E00611D231F849F600D211D822F762F6A2F54
:10012E0011249F5750409AF0F1F088234AF0EE0FB9
:10013E00FF1FBB1F661F771F881F91505040A9F7E6
:10014E009E3F510580F00C9417030C9403035F3F00
:10015E00E4F3983ED4F3869577956795B795F79522
:10016E00E7959F5FC1F7FE2B880F911D969587959A
:04017E0097F9089550
:10018200E89409C097FB3EF490958095709561952F
:100192007F4F8F4F9F4F9923A9F0F92F96E9BB27E5
:1001A2009395F695879577956795B795F111F8CF61
:1001B200FAF4BB0F11F460FF1BC06F5F7F4F8F4FCC
:1001C2009F4F16C0882311F096E911C0772321F0C2
:1001D2009EE8872F762F05C0662371F096E8862F5A
:1001E20070E060E02AF09A95660F771F881FDAF7B1
:0A01F200880F9695879597F90895F8
:1001FC001F920F920FB60F9211242F933F934F9390
:10020C005F936F937F938F939F93AF93BF93CF9392
:10021C00DF93EF93FF930E942D03EC010E941D03CB
:10022C00BE01DD0F880B990B0E94C3002AE939E946
:10023C0049E950E40E9429030E94FB02CB010E9471
:10024C00E301FF91EF91DF91CF91BF91AF919F911E
:10025C008F917F916F915F914F913F912F910F9063
:08026C000FBE0F901F901895C2
:100274001F920F920FB60F9211242F933F934F9317
:100284005F936F937F938F939F93AF93BF93EF93FA
:10029400FF938091600090916100019690936100BA
:1002A40080936000CD9731F40E943903109261006D
:1002B40010926000FF91EF91BF91AF919F918F9148
:1002C4007F916F915F914F913F912F910F900FBE4E
:0602D4000F901F90189529
:1002DA000E94C90188F09F5798F0B92F9927B75102
:1002EA00B0F0E1F0660F771F881F991F1AF0BA95D0
:1002FA00C9F714C0B13091F00E940203B1E0089529
:10030A000C940203672F782F8827B85F39F0B93F1A
:10031A00CCF3869577956795B395D9F73EF4909582
:0E032A008095709561957F4F8F4F9F4F08957E
:100338008AB3806F8ABB87B38E6087BBC2982FEF62
:1003480080E792E0215080409040E1F700C0000033
:100358000E941D0382E00E944D028CE00E944D0223
:1003680086E00E944D022FEF81EE94E021508040FC
:0A0378009040E1F700C00000089576
:1003820057FD9058440F551F59F05F3F71F0479544
:10039200880F97FB991F61F09F3F79F08795089529
:1003A200121613061406551FF2CF4695F1DF08C048
:1003B200161617061806991FF1CF86957105610565
:0403C20008940895FE
:1003C600CF93DF93CDB7DEB72B970FB6F894DEBF8A
:1003D6000FBECDBF4AE0BE016F5F7F4F0E94C802CD
:1003E600CE0101960E94AA022B960FB6F894DEBFA4
:0A03F6000FBECDBFDF91CF91089537
:100400001F93CF93DF93162FD42FC22F0E94ED029C
:10041000812F0E9478028D2F0E94E502CC2319F0D3
:100420000E943D0302C00E943B030E943703DF91FC
:06043000CF911F91089519
:10043600BB27FB015527AA27880F991FAA1FA417B8
:1004460010F0A41B83955051B9F7A05DAA3308F0AC
:10045600A95DA193009779F7B111B1931192CB01E0
:040466000C949A0256
:10046A00CF93C82FC19A8BB38F709C2F907F892B03
:10047A008BBB0E94D3028BB3282F2F7030E1C39F0E
:10048A00C0011124822B8BBB0E94D302CF91089505
:10049A00CF93C82FC1988BB38F709C2F907F892BD5
:1004AA008BBB0E94D3028BB3282F2F7030E1C39FDE
:1004BA00C0011124822B8BBB0E94D302CF910895D5
:1004CA000E949C0120E047E061E080E00E94000277
:1004DA0084E60E943F0342E065E088E00E94B90298
:0604EA000E943503FFCF64
:1004F000813041F018F0833041F0089587B18F7357
:1005000087B908953F983E9A089587B1806C87B95E
:0205100008954C
:10051200092E0394000C11F4882352F0BB0F40F40F
:10052200BF2B11F460FF04C06F5F7F4F8F4F9F4F4F
:0205320008952A
:10053400DC01FC01672F71917723E1F7329704C046
:100544007C916D9370836291AE17BF07C8F30895D1
:10055400CF93DF93EC018881882331F021960E94A8
:0E056400350289918111FBCFDF91CF9108956F
:10057200CF93DF93C62FD42F0E94F4028D2F0E94B7
:0E05820025038C2F0E94DC02DF91CF9108959B
:10059000BB274A3031F4992322F4BDE2909581952E
:0605A0009F4F0C941C02A9
:1005A600C39A8FE19EE40197F1F700C00000C3985B
:0205B6000895A6
:1005B800CF93C82F0E94210383B7C82BC3BFCF9105
:0205C800089594
:1005CA0096B1987F96B996B18770982B96B9089587
:0E05DA0097B1907E97B997B1892B87B9089594
:0E05E80093B7977B93BF93B7892B83BF08957A
:0E05F6000E946D016894B1110C9403030895E6
:0E060400E894BB2766277727CB0197F9089566
:0E06120000240A941616170618060906089505
:0E06200000240A941216130614060506089507
:0C062E0097F99F6780E870E060E0089595
:08063A0081E00E944D020895C9
:0806420083B7887F83BF089590
:08064A0099B7892B89BF0895BF
:080652000E9457000C9489027C
:06065A0084B195B1089582
:060660009FEF80EC0895FD
:040666000C940000F0
:04066A0078940895E3
:04066E00379A08951A
:04067200369A089517
:04067600339A089516
:04067A003398089514
:04067E008CBF089590
:00000001FF
