:100000000C942A000C9476000C9476000C947600E4
:100010000C9476000C9476000C9476000C94760088
:100020000C9476000C9476000C9476000C943600B8
:100030000C9476000C9476000C9476000C94760068
:100040000C9476000C9476000C9476000C94760058
:100050000C94760011241FBECFE5D8E0DEBFCDBFE3
:0C0060000E9454000C943400F894FFCF70
:10006C001F920F920FB60F9211248F938BB3809522
:0E007C008BBB8F910F900FBE0F901F901895A9
:10008A00CF93DF93C62FD42F0E9467008D2F0E9433
:0E009A0072008C2F0E945E00DF91CF910895BE
:1000A8008FEF8ABB41E065E080E00E9445000E9436
:0400B8007800FFCFFE
:1000BC00CF93C82F0E946E0083B7C82BC3BFCF91BC
:0200CC00089595
:0E00CE0093B7977B93BF93B7892B83BF089599
:0800DC0083B7887F83BF0895FC
:0800E40099B7892B89BF08952B
:0400EC000C94000070
:0400F0007894089563
:00000001FF
