:100000000C9430000C94DB020C94DB020C94DB02A9
:100010000C94DB020C94DB020C94DB020C94DB02EC
:100020000C94DB020C94DB020C94DB020C947C023B
:100030000C94DB020C94DB020C94DB020C94DB02CC
:100040000C94DB020C94DB020C94DB020C94DB02BC
:100050000C94DB02006000630005BE006300648056
:1000600011241FBECFE5D8E0DEBFCDBFE4E5F0E050
:1000700040E017C0B591A59135912591059107FDF7
:100080000CC095918591EF01F92FE82F05900D9205
:10009000A217B307D9F7FE0104C01D92A217B30738
:1000A000E1F7E036F40731F70E94C9000C945800DC
:0400B000F894FFCFF2
:1000B40010C00E94B80258F00E94B10240F029F426
:1000C4005F3F29F00C94C60251110C94C0020C94A9
:1000D400D8020E94A40168F39923B1F3552391F344
:1000E400951B550BBB27AA2762177307840738F0A3
:1000F4009F5F5F4F220F331F441FAA1FA9F335D000
:100104000E2E3AF0E0E832D091505040E695001CB3
:10011400CAF72BD0FE2F29D0660F771F881FBB1F6D
:10012400261737074807AB07B0E809F0BB0B802D4B
:10013400BF01FF2793585F4F3AF09E3F510578F077
:100144000C94C6020C94C0025F3FE4F3983ED4F3CF
:10015400869577956795B795F7959F5FC9F7880F4B
:10016400911D9695879597F90895E1E0660F771F9D
:10017400881FBB1F621773078407BA0720F0621B2E
:0E018400730B840BBA0BEE1F88F7E0950895FD
:100192000E947F018AE00E942D0283E00E94A10258
:1001A20041E065E080E40E9498020E94DD02989B93
:1001B2001BC080916300865F809363000E942D02C2
:1001C2000E94CC028091630090E00E94C60180E60A
:1001D20090E00E9462022FE986E891E0215080407F
:1001E2009040E1F700C00000999BE1CF809163004D
:1001F2008A50809363000E942D020E94CC0280915B
:10020200630090E00E94C60180E690E00E946202D4
:100212002FE986E891E0215080409040E1F700C04C
:040222000000C5CF44
:10022600E89409C097FB3EF490958095709561958A
:100236007F4F8F4F9F4F9923A9F0F92F96E9BB2740
:100246009395F695879577956795B795F111F8CFBC
:10025600FAF4BB0F11F460FF1BC06F5F7F4F8F4F27
:100266009F4F16C0882311F096E911C0772321F01D
:100276009EE8872F762F05C0662371F096E8862FB5
:1002860070E060E02AF09A95660F771F881FDAF70C
:0A029600880F9695879597F9089553
:1002A0000E94AC0188F09F5798F0B92F9927B75159
:1002B000B0F0E1F0660F771F881F991F1AF0BA950A
:1002C000C9F714C0B13091F00E94BF02B1E00895A7
:1002D0000C94BF02672F782F8827B85F39F0B93F99
:1002E000CCF3869577956795B395D9F73EF49095BD
:0E02F0008095709561957F4F8F4F9F4F0895B9
:1002FE008AB3806F8ABB87B3866187BBC2982FEFA4
:10030E0080E792E0215080409040E1F700C000006D
:10031E000E94CC0282E00E9415028CE00E9415021F
:10032E0086E00E9415022FEF81EE94E0215080406E
:0A033E009040E1F700C000000895B0
:1003480057FD9058440F551F59F05F3F71F047957E
:10035800880F97FB991F61F09F3F79F08795089563
:10036800121613061406551FF2CF4695F1DF08C082
:10037800161617061806991FF1CF8695710561059F
:040388000894089538
:10038C00CF93DF93CDB7DEB72B970FB6F894DEBFC4
:10039C000FBECDBF4AE0BE016F5F7F4F0E9471025E
:1003AC00CE0101960E9462022B960FB6F894DEBF26
:0A03BC000FBECDBFDF91CF91089571
:1003C600BB27FB015527AA27880F991FAA1FA41729
:1003D60010F0A41B83955051B9F7A05DAA3308F01D
:1003E600A95DA193009779F7B111B1931192CB0151
:0403F6000C9452020F
:1003FA00CF93C82FC19A8BB38F709C2F907F892B74
:10040A008BBB0E9486028BB3282F2F7030E1C39FCB
:10041A00C0011124822B8BBB0E948602CF910895C2
:10042A00CF93C82FC1988BB38F709C2F907F892B45
:10043A008BBB0E9486028BB3282F2F7030E1C39F9B
:10044A00C0011124822B8BBB0E948602CF91089592
:10045A002FEF829FC0011124BC01990F880B990BC1
:10046A000E94150120E030E048EC52E40E94D402D8
:08047A000E9450016CBF0895BF
:10048200092E0394000C11F4882352F0BB0F40F4A0
:10049200BF2B11F460FF04C06F5F7F4F8F4F9F4FE0
:0204A2000895BB
:1004A400DC01FC01672F71917723E1F7329704C0D7
:1004B4007C916D9370836291AE17BF07C8F3089562
:1004C400CF93DF93EC018881882331F021960E9439
:0E04D400FD0189918111FBCFDF91CF91089539
:1004E200BB274A3031F4992322F4BDE290958195DD
:0604F2009F4F0C94E40191
:1004F8001F920F920FB60F9211240F900FBE0F90FC
:040508001F90189593
:10050C00C49A8FE19EE40197F1F700C00000C498F3
:02051C00089540
:10051E00CF93C82F0E94D00283B7C82BC3BFCF91F1
:02052E0008952E
:10053000CF93C62F0E94AA028C2F0E948F02CF91C8
:0205400008951C
:10054200BB9A23B730E1839FC0011124822B83BF62
:0205520008950A
:0E05540093B7977B93BF93B7892B83BF08950E
:0E05620000240A9416161706180609060895B6
:0E05700000240A9412161306140605060895B8
:0E057E00E894BB2766277727CB0197F90895ED
:0C058C0097F99F6780E870E060E0089538
:0805980081E00E9415020895A4
:0805A00083B7887F83BF089533
:0805A8000E945A000C9441026C
:0605B0009FEF80EC0895AE
:0405B6000C940000A1
:0405BA007894089594
:0305BE00202500F5
:00000001FF
