:100000000C942A000C947D000C947D000C947D00CF
:100010000C947D000C947D000C947D000C947D006C
:100020000C947D000C947D000C947D000C947D005C
:100030000C947D000C947D000C947D000C947D004C
:100040000C947D000C947D000C947D000C947D003C
:100050000C947D0011241FBECFE5D8E0DEBFCDBFDC
:0C0060000E9436000C943400F894FFCF8E
:10006C000E94780087E090E00E9466002FEF89E6FE
:10007C0098E1215080409040E1F700C0000087E0FB
:10008C0090E00E9453002FEF89E698E121508040C8
:0A009C009040E1F700C00000E5CF3E
:1000A6008330910511F49398089545B321E030E02B
:1000B600B90102C0660F771F8A95E2F7CB018095DA
:0600C600842385BB0895B0
:1000CC008330910511F4939A089545B321E030E003
:1000DC00B90102C0660F771F8A95E2F7CB01842B1A
:0400EC0085BB089533
:0A00F00084B3846884BB8B9A0895E2
:0400FA000C94000062
:00000001FF
