:100000000C942E000C94C5020C94C5020C94C502ED
:100010000C94C5020C94C5020C94C5020C94C50244
:100020000C94C5020C94C5020C94C5020C94C50234
:100030000C94C5020C942E010C94C5020C94C502BC
:100040000C94C5020C94C5020C94C5020C94C50214
:100050000C94C5020060008A0005920011241FBEA6
:10006000CFE5D8E0DEBFCDBFE4E5F0E040E017C06B
:10007000B591A59135912591059107FD0CC09591FC
:100080008591EF01F92FE82F05900D92A217B30784
:10009000D9F7FE0104C01D92A217B307E1F7EB35B3
:1000A000F40731F70E94EA010C945600F894FFCF50
:1000B00010C00E94A20258F00E949B0240F029F456
:1000C0005F3F29F00C94B00251110C94AA020C94D9
:1000D000C2020E94170268F39923B1F3552391F3EA
:1000E000951B550BBB27AA2762177307840738F0A7
:1000F0009F5F5F4F220F331F441FAA1FA9F335D004
:100100000E2E3AF0E0E832D091505040E695001CB7
:10011000CAF72BD0FE2F29D0660F771F881FBB1F71
:10012000261737074807AB07B0E809F0BB0B802D4F
:10013000BF01FF2793585F4F3AF09E3F510578F07B
:100140000C94B0020C94AA025F3FE4F3983ED4F3FF
:10015000869577956795B795F7959F5FC9F7880F4F
:10016000911D9695879597F90895E1E0660F771FA1
:10017000881FBB1F621773078407BA0720F0621B32
:0E018000730B840BBA0BEE1F88F7E095089501
:10018E0011C00E949B0238F00E94A20220F039F4A6
:10019E009F3F19F426F40C94C2020EF4E095E7FB8F
:1001AE000C94B002E92F0E94170258F3BA17620797
:1001BE0073078407950720F079F4A6F50C94A9022D
:1001CE000EF4E0950B2EBA2FA02D0B01B901900164
:1001DE000C01CA01A0011124FF27591B99F0593FA8
:1001EE0050F4503E68F11A16F040A22F232F342FF0
:1001FE004427585FF3CF469537952795A795F0403E
:10020E005395C9F77EF41F16BA0B620B730B840B52
:10021E00BAF09150A1F0FF0FBB1F661F771F881F0A
:10022E00C2F70EC0BA0F621F731F841F48F4879562
:10023E0077956795B795F7959E3F08F0B0CF939554
:0E024E00880F08F09927EE0F97958795089571
:10025C001F920F920FB60F9211242F933F934F932F
:10026C005F936F937F938F939F93AF93BF93CF9332
:10027C00EF93FF93CCB1C13449F480E090E00E943D
:10028C00820280E890E00E94670216C0C23449F4F2
:10029C0080E090E00E9476028BE690E00E9467027C
:1002AC0015C0C33449F481E090E00E94820286E7D5
:1002BC0090E00E9467020AC0C43441F481E090E0EF
:1002CC000E94760280E690E00E946702FF91EF9117
:1002DC00CF91BF91AF919F918F917F916F915F91D2
:1002EC004F913F912F910F900FBE0F901F9018952B
:1002FC00E89409C097FB3EF49095809570956195B4
:10030C007F4F8F4F9F4F9923A9F0F92F96E9BB2769
:10031C009395F695879577956795B795F111F8CFE5
:10032C00FAF4BB0F11F460FF1BC06F5F7F4F8F4F50
:10033C009F4F16C0882311F096E911C0772321F046
:10034C009EE8872F762F05C0662371F096E8862FDE
:10035C0070E060E02AF09A95660F771F881FDAF735
:0A036C00880F9695879597F908957C
:100376000E941F0288F09F5798F0B92F9927B7510E
:10038600B0F0E1F0660F771F881F991F1AF0BA9533
:10039600C9F714C0B13091F00E94A902B1E00895E6
:1003A6000C94A902672F782F8827B85F39F0B93FD8
:1003B600CCF3869577956795B395D9F73EF49095E6
:0E03C6008095709561957F4F8F4F9F4F0895E2
:1003D4000E94B60280E895E20E9439020E94C70298
:1003E4002FE382E49FE0215080409040E1F700C079
:1003F40000002FE382E49FE0215080409040E1F729
:1004040000C000002FE382E49FE021508040904030
:10041400E1F700C000002FE382E49FE02150804018
:0A0424009040E1F700C00000DBCFBC
:10042E0057FD9058440F551F59F05F3F71F0479597
:10043E00880F97FB991F61F09F3F79F0879508957C
:10044E00121613061406551FF2CF4695F1DF08C09B
:10045E00161617061806991FF1CF869571056105B8
:04046E000894089551
:10047200BC018AB188698AB9072E000C880B990BD6
:100482000E9480019B01AC0160E074E284E799E480
:100492000E94BE0220E030E040E85FE30E948D024D
:0A04A2000E94940269B970BD08952C
:1004AC00092E0394000C11F4882352F0BB0F40F476
:1004BC00BF2B11F460FF04C06F5F7F4F8F4F9F4FB6
:0204CC00089591
:1004CE00CF93DF93EC018881882331F021960E942F
:0E04DE00BA0289918111FBCFDF91CF91089571
:1004EC009BB321E030E002C0220F331F8A95E2F764
:0804FC00209529232BBB089574
:100504009BB321E030E002C0220F331F8A95E2F74B
:06051400292B2BBB08950A
:0E051A005058BB27AA270E94C7000C94560217
:0E0528000E94BB016894B1110C94AA020895C0
:0E05360000240A9416161706180609060895E2
:0E05440000240A9412161306140605060895E4
:0E055200E894BB2766277727CB0197F9089519
:0C05600097F99F6780E870E060E0089564
:08056C008AB383608ABB089585
:080574005D9BFECF8CB90895D8
:08057C000E9458000C94560285
:060584009FEF80EC0895DA
:04058A000C940000CD
:04058E0078940895C0
:0B0592004C454431204F4646200D0030
:0B059D004C454430204F4646200D0026
:0A05A8004C454431204F4E200D0059
:0A05B2004C454430204F4E200D0050
:00000001FF
