:100000000C942A000C9436000C945E000C945E0054
:100010000C945E000C945E000C945E000C945E00E8
:100020000C945E000C945E000C945E000C945E00D8
:100030000C945E000C945E000C945E000C945E00C8
:100040000C945E000C945E000C945E000C945E00B8
:100050000C945E0011241FBECFE5D8E0DEBFCDBFFB
:0C0060000E9445000C943400F894FFCF7F
:10006C001F920F920FB60F9211248F938BB3809522
:0E007C008BBB8F910F900FBE0F901F901895A9
:10008A008FEF8ABB83E00E9455000E946000FFCF79
:10009A0095B79C7F95BF95B78370982B95BF0895A8
:0A00AA000E944D000E945A000895C4
:0800B4008BB780648BBF089537
:0400BC000C940000A0
:0400C0007894089593
:00000001FF
