:100000000C942A000C949A020C949A020C949A0272
:100010000C949A020C949A020C949A020C949A02F0
:100020000C949A020C949A020C949A020C949A02E0
:100030000C949A020C949A020C949A020C949A02D0
:100040000C949A020C949A020C949A020C949A02C0
:100050000C949A0211241FBECFE5D8E0DEBFCDBFBD
:0C0060000E94DD000C943400F894FFCFE7
:10006C000FC00E94750238F00E947C0220F095238C
:10007C0011F00C9483020C94970211240C946F02CF
:10008C000E94640170F3959FC1F3950F50E0551FCA
:10009C00629FF001729FBB27F00DB11D639FAA27D1
:1000AC00F00DB11DAA1F649F6627B00DA11D661F20
:1000BC00829F2227B00DA11D621F739FB00DA11D41
:1000CC00621F839FA00D611D221F749F3327A00DFB
:1000DC00611D231F849F600D211D822F762F6A2F97
:1000EC0011249F5750409AF0F1F088234AF0EE0FFC
:1000FC00FF1FBB1F661F771F881F91505040A9F729
:10010C009E3F510580F00C9483020C946F025F3F6C
:10011C00E4F3983ED4F3869577956795B795F79564
:10012C00E7959F5FC1F7FE2B880F911D96958795DC
:04013C0097F9089592
:10014000E89409C097FB3EF4909580957095619571
:100150007F4F8F4F9F4F9923A9F0F92F96E9BB2727
:100160009395F695879577956795B795F111F8CFA3
:10017000FAF4BB0F11F460FF1BC06F5F7F4F8F4F0E
:100180009F4F16C0882311F096E911C0772321F004
:100190009EE8872F762F05C0662371F096E8862F9C
:1001A00070E060E02AF09A95660F771F881FDAF7F3
:0A01B000880F9695879597F908953A
:1001BA008FEF87BBA0980E943F0121E047E061E0F2
:1001CA0080E10E94ED010E949E02989BFECF0E9450
:1001DA009E020E9491020E949402EC010E948902EE
:1001EA00BE01DD0F880B990B0E94A20020E030E0CF
:1001FA0048E45EE30E948D020E946702CB010E94DE
:10020A0086012FEF89E698E1215080409040E1F77E
:06021A0000C00000DACF75
:100220000E946C0188F09F5798F0B92F9927B75119
:10023000B0F0E1F0660F771F881F991F1AF0BA958A
:10024000C9F714C0B13091F00E946E02B1E0089578
:100250000C946E02672F782F8827B85F39F0B93F6A
:10026000CCF3869577956795B395D9F73EF490953D
:0E0270008095709561957F4F8F4F9F4F089539
:10027E0081B3806F81BB81B3876081BB91982FEF73
:10028E0080E792E0215080409040E1F700C00000EE
:10029E000E94890282E00E94D5018CE00E94D50165
:1002AE0086E00E94D5012FEF81EE94E02150804030
:0A02BE009040E1F700C00000089531
:1002C80057FD9058440F551F59F05F3F71F04795FF
:1002D800880F97FB991F61F09F3F79F087950895E4
:1002E800121613061406551FF2CF4695F1DF08C003
:1002F800161617061806991FF1CF86957105610520
:0403080008940895B8
:10030C00CF93DF93CDB7DEB72B970FB6F894DEBF44
:10031C000FBECDBF4AE0BE016F5F7F4F0E9444020B
:10032C00CE0101960E9435022B960FB6F894DEBFD3
:0A033C000FBECDBFDF91CF910895F1
:10034600BB27FB015527AA27880F991FAA1FA417A9
:1003560010F0A41B83955051B9F7A05DAA3308F09D
:10036600A95DA193009779F7B111B1931192CB01D1
:040376000C942502BC
:10037A00CF93C82F909A82B38F709C2F907F892B2E
:10038A0082BB0E944F0282B3282F2F7030E1C39F95
:10039A00C0011124822B82BB0E944F02CF91089583
:1003AA00CF93C82F909882B38F709C2F907F892B00
:1003BA0082BB0E944F0282B3282F2F7030E1C39F65
:1003CA00C0011124822B82BB0E944F02CF91089553
:1003DA00CF93C22F80E10E94600281E00E94030253
:1003EA0087E00E945802CC2319F00E94A20202C0A0
:0C03FA000E94A0020E949C02CF91089576
:10040600813041F018F0833041F0089587B18F7341
:1004160087B908953F983E9A089587B1806C87B949
:02042600089537
:10042800092E0394000C11F4882352F0BB0F40F4FA
:10043800BF2B11F460FF04C06F5F7F4F8F4F9F4F3A
:02044800089515
:10044A00DC01FC01672F71917723E1F7329704C031
:10045A007C916D9370836291AE17BF07C8F30895BC
:10046A00CF93DF93EC018881882331F021960E9493
:0E047A00BD0189918111FBCFDF91CF910895D3
:10048800BB274A3031F4992322F4BDE29095819537
:060498009F4F0C94A4012B
:10049E00929A8FE19EE40197F1F700C000009298C6
:0204AE000895AF
:1004B00096B1987F96B996B18770982B96B90895A2
:0E04C00097B1907E97B997B1892B87B90895AF
:0E04CE000E9410016894B1110C946F02089501
:0E04DC00E894BB2766277727CB0197F9089590
:0E04EA0000240A94161617061806090608952F
:0E04F80000240A941216130614060506089531
:0C05060097F99F6780E870E060E00895BE
:0805120081E00E94D50108956B
:08051A000E9436000C9414024B
:06052200349BFECF08959A
:0605280084B195B10895B5
:06052E009FEF80EC089530
:040534000C94000023
:04053800379A089551
:04053C00369A08954E
:04054000339A08954D
:04054400339808954B
:00000001FF
