:100000000C942A000C942B010C942B010C942B01C2
:100010000C942B010C942B010C942B010C942B01B0
:100020000C942B010C942B010C942B010C942B01A0
:100030000C942B010C942B010C942B010C942B0190
:100040000C942B010C942B010C942B010C942B0180
:100050000C942B0111241FBECFE5D8E0DEBFCDBF2D
:10006000E4E5F0E040E017C0B591A5913591259108
:10007000059107FD0CC095918591EF01F92FE82FAF
:1000800005900D92A217B307D9F7FE0104C01D9287
:10009000A217B307E1F7E435F40731F70E94E00057
:0800A0000C945200F894FFCF0C
:1000A80081B3806F81BB81B3876081BB91982FEF4B
:1000B80080E792E0215080409040E1F700C00000C6
:1000C8000E94270182E00E94C8008CE00E94C800BC
:1000D80086E00E94C8002FEF81EE94E02150804016
:0A00E8009040E1F700C00000089509
:1000F200CF93DF93CDB7DEB72B970FB6F894DEBF61
:100102000FBECDBF4AE0BE016F5F7F4F0E94130159
:10011200CE0101960E9404012B960FB6F894DEBF21
:0A0122000FBECDBFDF91CF9108950D
:10012C00BB27FB015527AA27880F991FAA1FA417C5
:10013C0010F0A41B83955051B9F7A05DAA3308F0B9
:10014C00A95DA193009779F7B111B1931192CB01ED
:04015C000C94F4000B
:10016000CF93C82F909A82B38F709C2F907F892B4A
:1001700082BB0E941E0182B3282F2F7030E1C39FE3
:10018000C0011124822B82BB0E941E01CF910895D1
:10019000CF93C82F909882B38F709C2F907F892B1C
:1001A00082BB0E941E0182B3282F2F7030E1C39FB3
:1001B000C0011124822B82BB0E941E01CF910895A1
:1001C0000E945400C0EED4E121960E942701CE0186
:1001D0000E9479002FEF89E698E1215080409040FD
:0801E000E1F700C00000F0CFC0
:1001E800DC01FC01672F71917723E1F7329704C096
:1001F8007C916D9370836291AE17BF07C8F3089521
:10020800CF93DF93EC018881882331F021960E94F7
:0E021800B00089918111FBCFDF91CF91089545
:10022600BB274A3031F4992322F4BDE2909581959B
:060236009F4F0C9497009D
:10023C00929A8FE19EE40197F1F700C0000092982A
:02024C00089513
:08024E0081E00E94C800089540
:040256000C94000004
:00000001FF
