:100000000C942A000C94C9020C94C9020C94C902E5
:100010000C94C9020C94C9020C94C9020C94C90234
:100020000C94C9020C94C9020C94C9020C94C90224
:100030000C94C9020C94C9020C94C9020C94C90214
:100040000C94A0000C94C9020C94C9020C94C9022F
:100050000C94C90211241FBECFE5D8E0DEBFCDBF8E
:0C0060000E9488010C943400F894FFCF3B
:10006C000FC00E94A70238F00E94AE0220F0952328
:10007C0011F00C94B5020C94C60211240C94A1023C
:10008C000E94AC0170F3959FC1F3950F50E0551F82
:10009C00629FF001729FBB27F00DB11D639FAA27D1
:1000AC00F00DB11DAA1F649F6627B00DA11D661F20
:1000BC00829F2227B00DA11D621F739FB00DA11D41
:1000CC00621F839FA00D611D221F749F3327A00DFB
:1000DC00611D231F849F600D211D822F762F6A2F97
:1000EC0011249F5750409AF0F1F088234AF0EE0FFC
:1000FC00FF1FBB1F661F771F881F91505040A9F729
:10010C009E3F510580F00C94B5020C94A1025F3F08
:10011C00E4F3983ED4F3869577956795B795F79564
:10012C00E7959F5FC1F7FE2B880F911D96958795DC
:04013C0097F9089592
:100140001F920F920FB60F921124CF92DF92EF926F
:10015000FF922F933F934F935F936F937F938F9370
:100160009F93AF93BF93CF93DF93EF93FF930E943F
:10017000C302BC01990F880B990B0E94F90020E083
:1001800030E048E45EE30E94BF020E9499026B01E6
:100190007C010E94BB02C6010E94CE012FEF80E7C6
:1001A00092E0215080409040E1F700C0000029EB30
:1001B000C2162BE0D2061CF08FEF88BB01C018BA24
:1001C000FF91EF91DF91CF91BF91AF919F918F916F
:1001D0007F916F915F914F913F912F91FF90EF90A1
:0E01E000DF90CF900F900FBE0F901F901895DC
:1001EE00E89409C097FB3EF49095809570956195C3
:1001FE007F4F8F4F9F4F9923A9F0F92F96E9BB2779
:10020E009395F695879577956795B795F111F8CFF4
:10021E00FAF4BB0F11F460FF1BC06F5F7F4F8F4F5F
:10022E009F4F16C0882311F096E911C0772321F055
:10023E009EE8872F762F05C0662371F096E8862FED
:10024E0070E060E02AF09A95660F771F881FDAF744
:0A025E00880F9695879597F908958B
:100268000E94B40188F09F5798F0B92F9927B75189
:10027800B0F0E1F0660F771F881F991F1AF0BA9542
:10028800C9F714C0B13091F00E94A002B1E00895FE
:100298000C94A002672F782F8827B85F39F0B93FF0
:1002A800CCF3869577956795B395D9F73EF49095F5
:0E02B8008095709561957F4F8F4F9F4F0895F1
:1002C60081B3806F81BB81B3876081BB91982FEF2B
:1002D60080E792E0215080409040E1F700C00000A6
:1002E6000E94BB0282E00E941D028CE00E941D0259
:1002F60086E00E941D022FEF81EE94E0215080409F
:0A0306009040E1F700C000000895E8
:100310008FEF87BBA0980E94630180E00E94920249
:1003200081E00E94350287E00E948A020E94D10289
:100330000E94CD020E94CB020E94CF02989BFECF6A
:100340000E94CF022FEF89E698E121508040904033
:08035000E1F700C00000F2CF4C
:1003580057FD9058440F551F59F05F3F71F047956E
:10036800880F97FB991F61F09F3F79F08795089553
:10037800121613061406551FF2CF4695F1DF08C072
:10038800161617061806991FF1CF8695710561058F
:040398000894089528
:10039C00CF93DF93CDB7DEB72B970FB6F894DEBFB4
:1003AC000FBECDBF4AE0BE016F5F7F4F0E94760249
:1003BC00CE0101960E9467022B960FB6F894DEBF11
:0A03CC000FBECDBFDF91CF91089561
:1003D600BB27FB015527AA27880F991FAA1FA41719
:1003E60010F0A41B83955051B9F7A05DAA3308F00D
:1003F600A95DA193009779F7B111B1931192CB0141
:040406000C945702F9
:10040A00CF93C82F909A82B38F709C2F907F892B9D
:10041A0082BB0E94810282B3282F2F7030E1C39FD2
:10042A00C0011124822B82BB0E948102CF910895C0
:10043A00CF93C82F909882B38F709C2F907F892B6F
:10044A0082BB0E94810282B3282F2F7030E1C39FA2
:10045A00C0011124822B82BB0E948102CF91089590
:10046A00813041F018F0833041F0089587B18F73DD
:10047A0087B908953F983E9A089587B1806C87B9E5
:02048A000895D3
:10048C00092E0394000C11F4882352F0BB0F40F496
:10049C00BF2B11F460FF04C06F5F7F4F8F4F9F4FD6
:0204AC000895B1
:1004AE00DC01FC01672F71917723E1F7329704C0CD
:1004BE007C916D9370836291AE17BF07C8F3089558
:1004CE00CF93DF93EC018881882331F021960E942F
:0E04DE00050289918111FBCFDF91CF91089526
:1004EC00BB274A3031F4992322F4BDE290958195D3
:0604FC009F4F0C94EC017F
:10050200929A8FE19EE40197F1F700C00000929861
:0205120008954A
:1005140096B1987F96B996B18770982B96B908953D
:0E05240097B1907E97B997B1892B87B908954A
:0E0532000E9434016894B1110C94A102089546
:0E054000E894BB2766277727CB0197F908952B
:0E054E0000240A9416161706180609060895CA
:0E055C0000240A9412161306140605060895CC
:0C056A0097F99F6780E870E060E008955A
:0805760081E00E941D020895BE
:08057E000E9436000C944602B5
:0605860084B195B1089557
:06058C009FEF80EC0895D2
:040592000C940000C5
:0405960078940895B8
:04059A00379A0895EF
:04059E00369A0895EC
:0405A200339A0895EB
:00000001FF
