:100000000C942D000C94BF020C94BF020C94BF0200
:100010000C94BF020C94BF020C94BF020C94BF025C
:100020000C94BF020C94BF020C94BF020C94BF024C
:100030000C94BF020C94BF020C94BF020C94BF023C
:100040000C94BF020C94BF020C94BF020C94BF022C
:100050000C94BF0200600062800011241FBECFE537
:10006000D8E0DEBFCDBFE4E5F0E040E017C0B591D9
:10007000A59135912591059107FD0CC0959185912C
:10008000EF01F92FE82F05900D92A217B307D9F7CA
:10009000FE0104C01D92A217B307E1F7E935F4078A
:0E00A00031F70E94FE000C945500F894FFCF3B
:1000AE000FC00E949A0238F00E94A10220F0952300
:1000BE0011F00C94A8020C94BC0211240C9494021E
:1000CE000E94840170F3959FC1F3950F50E0551F68
:1000DE00629FF001729FBB27F00DB11D639FAA278F
:1000EE00F00DB11DAA1F649F6627B00DA11D661FDE
:1000FE00829F2227B00DA11D621F739FB00DA11DFF
:10010E00621F839FA00D611D221F749F3327A00DB8
:10011E00611D231F849F600D211D822F762F6A2F54
:10012E0011249F5750409AF0F1F088234AF0EE0FB9
:10013E00FF1FBB1F661F771F881F91505040A9F7E6
:10014E009E3F510580F00C94A8020C9494025F3FE0
:10015E00E4F3983ED4F3869577956795B795F79522
:10016E00E7959F5FC1F7FE2B880F911D969587959A
:04017E0097F9089550
:10018200E89409C097FB3EF490958095709561952F
:100192007F4F8F4F9F4F9923A9F0F92F96E9BB27E5
:1001A2009395F695879577956795B795F111F8CF61
:1001B200FAF4BB0F11F460FF1BC06F5F7F4F8F4FCC
:1001C2009F4F16C0882311F096E911C0772321F0C2
:1001D2009EE8872F762F05C0662371F096E8862F5A
:1001E20070E060E02AF09A95660F771F881FDAF7B1
:0A01F200880F9695879597F90895F8
:1001FC000E945F0121E047E061E081E00E94C301C1
:10020C000E94C3020E94B6020E94B902BC01990F5F
:10021C00880B990B0E94C30020E030E44CE950E4B9
:10022C000E94B2020E948C02709361006093600085
:10023C000E94AE0280916000909161000E94A60124
:10024C002FEF83EC99E0215080409040E1F700C003
:04025C000000D6CFF9
:100260000E948C0188F09F5798F0B92F9927B751B9
:10027000B0F0E1F0660F771F881F991F1AF0BA954A
:10028000C9F714C0B13091F00E949302B1E0089513
:100290000C949302672F782F8827B85F39F0B93F05
:1002A000CCF3869577956795B395D9F73EF49095FD
:0E02B0008095709561957F4F8F4F9F4F0895F9
:1002BE008AB3806F8ABB87B38E6087BBC2982FEFDD
:1002CE0080E792E0215080409040E1F700C00000AE
:1002DE000E94AE0282E00E9410028CE00E94100288
:1002EE0086E00E9410022FEF83EC99E021508040AF
:0A02FE009040E1F700C000000895F1
:1003080057FD9058440F551F59F05F3F71F04795BE
:10031800880F97FB991F61F09F3F79F087950895A3
:10032800121613061406551FF2CF4695F1DF08C0C2
:10033800161617061806991FF1CF869571056105DF
:040348000894089578
:10034C00CF93DF93CDB7DEB72B970FB6F894DEBF04
:10035C000FBECDBF4AE0BE016F5F7F4F0E946902A6
:10036C00CE0101960E945A022B960FB6F894DEBF6E
:0A037C000FBECDBFDF91CF910895B1
:100386001F93CF93DF93162FD42FC22F0E9485027F
:10039600812F0E9428028D2F0E947D02CC2319F006
:1003A6000E94C70202C00E94C5020E94C102DF91DC
:0603B600CF911F91089594
:1003BC00BB27FB015527AA27880F991FAA1FA41733
:1003CC0010F0A41B83955051B9F7A05DAA3308F027
:1003DC00A95DA193009779F7B111B1931192CB015B
:0403EC000C944A0221
:1003F000CF93C82FC19A8BB38F709C2F907F892B7E
:100400008BBB0E9474028BB3282F2F7030E1C39FE7
:10041000C0011124822B8BBB0E947402CF910895DE
:10042000CF93C82FC1988BB38F709C2F907F892B4F
:100430008BBB0E9474028BB3282F2F7030E1C39FB7
:10044000C0011124822B8BBB0E947402CF910895AE
:10045000813041F018F0833041F0089587B18F73F7
:1004600087B908953F983E9A089587B1806C87B9FF
:020470000895ED
:10047200092E0394000C11F4882352F0BB0F40F4B0
:10048200BF2B11F460FF04C06F5F7F4F8F4F9F4FF0
:020492000895CB
:10049400DC01FC01672F71917723E1F7329704C0E7
:1004A4007C916D9370836291AE17BF07C8F3089572
:1004B400CF93DF93EC018881882331F021960E9449
:0E04C400F80189918111FBCFDF91CF9108954E
:1004D200BB274A3031F4992322F4BDE290958195ED
:0604E2009F4F0C94DF01A6
:1004E800C39A8FE19EE40197F1F700C00000C3981A
:0204F800089565
:1004FA0096B1987F96B996B18770982B96B9089558
:0E050A0097B1907E97B997B1892B87B9089564
:0E0518000E9430016894B1110C949402089571
:0E052600E894BB2766277727CB0197F9089545
:0E05340000240A9416161706180609060895E4
:0E05420000240A9412161306140605060895E6
:0C05500097F99F6780E870E060E0089574
:08055C0081E00E9410020895E5
:080564000E9457000C943902BB
:06056C00349BFECF089550
:0605720084B195B108956B
:060578009FEF80EC0895E6
:04057E000C940000D9
:04058200379A089507
:04058600369A089504
:04058A00339A089503
:04058E003398089501
:00000001FF
